:03000000020006F5
:0B005F00750800E4F509F50A02000333
:0300030002037F76
:20006A0090E6007410F090E60174C0F00000000090E61274A2F00000000090E6047480F005
:20008A000000000090E6047482F00000000090E6047484F00000000090E6047486F0000030
:2000AA00000090E6047488F00000000090E604E4F00000000090E618E4F00000000090E6AA
:2000CA00497482F00000000090E6497482F000000000227E007FF890E690E0FC7D0090E656
:2000EA0091E07A004205EA42047A007B00C3EA9DEB9C503090F000E0F9B961004010E9247E
:20010A0085400B74E029F98E828F83F0800A90F000E0F98E828F83F00ABA00010B0EBE00EC
:20012A00CC0F80C990F000E0FFBF410490000A22BF420490000B220000000090E6497482FB
:20014A00F00000000090E698ECF00000000090E699EDF0900000227401B50B0280197402D7
:20016A00B50B0280127405B50B02800B740AB50B0280047582002275B2FF7580FF758080EF
:20018A0075820122AF82BF01028003BF020B90E61A74072FF0758201227582002290E6F531
:2001AA0074FFF000000000000000000000000090E6047480F0000000000000000000000074
:2001CA000000000000000000000000000090E6047486F00000000000000000000000009021
:2001EA00E604E4F02290E6F574FFF0000000000000000000000000E508700790E6487406AB
:20020A00F02290E6487402F0221201A77EE87F03EE24FFFCEF34FFFD8C068D07EC4D70F0EF
:20022A00E5BB30E7FB00000000000000000000000090E6D07428F000000000000000000030
:20024A0000000090E6D1E4F0E508700575BB06800375BB04E4F509F50A22E582FFF5087054
:20026A001790E61474E0F090E6E27401F090E625E4F090E6247402F022AF827E00EE75F03F
:20028A0007A4FCADF024D2F582ED3403F583E493FBB5070280080EBE0CE375820022EC246B
:2002AA00D2FCED3403FD74062CF582E43DF583E49390E601F075AF07759DE4759E008C826F
:2002CA008D83A3E49390E67CF08C828D83A3A3E49390E67CF07401F0E4F0F0F0F0F08C8244
:2002EA008D83A3A3A39390E67CF08C828D83A3A3A3A3E49390E67CF07401F0E4F0F0F0F07A
:20030A00F08C828D83A3A3A3A3A39390E67CF07411F0F0E4F0F0F0F0F0F0F0F0F0F0F0F098
:20032A00F07F0090E67CE4F00FBF600040F57582012290E613E4F090E615F090E6C2F09071
:20034A00E6C37480F090E6C0E4F090E6F4F01201EF750B01758200120161750B017582013B
:20036A0012016175820112028375820212018E75820002026412006A1201EF750B01758281
:20038A0000120161750B0175820112016175820112028375820212018E75820012026490CA
:2003AA00E6A3E0FF20E2F81200DDAE82AF83BE0B08BF000512021380E6BE0AE3BF00E01202
:0403CA0001EF80DBE4
:2003D200308000030000EA1E8000030000AA180100020110CA100101020010CA0C0201022E
:2003F2000010CA080302020010CA040605020010CA020C0B020010CA011817020010CA320A
:14041200302F020010CA147877020010CA0AF0EF020010CAF7
:06003500E478FFF6D8FD9F
:200013007900E94400601B7A00900426780175A000E493F2A308B8000205A0D9F4DAF27569
:02003300A0FF2C
:20003B007800E84400600A790175A000E4F309D8FC7800E84400600C7900900001E4F0A3C3
:04005B00D8FCD9FAFA
:0D00060075810B1203CEE58260030200033A
:0403CE007582002212
:00000001FF
