:03000000020006F5
:0B005F00756C00E4F56DF56E02000307
:030003000203BC39
:20006A0090E6007410F090E60174C0F00000000090E60B7403F00000000090E61474E2F039
:20008A000000000090E61274A2F00000000090E6047480F00000000090E6047482F000000A
:2000AA00000090E6047484F00000000090E6047486F00000000090E6047488F0000000000A
:2000CA0090E604E4F00000000090E618E4F00000000090E6497482F00000000090E649748E
:2000EA0082F000000000227E007FF090E690E0FC7D0090E691E07A004DF56FEA4CF5707AEF
:20010A00007B00C3EA956FEB95705021C3EA9464EB94005018EA2408F98E828F83E0FDA30B
:20012A00AE82AF83A7050ABA00D90B80D60000000090E6497482F0758261227401B56F02EF
:20014A0080197402B56F0280127405B56F02800B740AB56F0280047582002275B2FF758048
:20016A00FF75808075820122AF82BF01028003BF020B90E61A74072FF0758201227582006A
:20018A002290E6F574FFF000000000000000000000000090E6047480F00000000000000007
:2001AA00000000000000000000000000000000000090E6047486F0000000000000000000D1
:2001CA0000000090E604E4F02290E6F574FFF0000000000000000000000000E56C7007907F
:2001EA00E6487406F02290E6487402F02212018B7EE87F03EE24FFFCEF34FFFD8C068D071D
:20020A00EC4D70F0E5BB30E7FB00000000000000000000000090E6D07428F00000000000B7
:20022A000000000000000090E6D1E4F0E56C700575BB06800375BB04E4F56DF56E22E582B4
:20024A00FFF56C701790E61474E0F090E6E27401F090E625E4F090E6247402F022AF827EE2
:20026A0000EE75F007A4FCADF0248DF582ED3405F583E493FBB5070280080EBE0CE37582AD
:20028A000022EC248DFCED3405FD74062CF582E43DF583E49390E601F075AF07759DE4754C
:2002AA009E008C828D83A3E49390E67CF08C828D83A3A3E49390E67CF07401F0E4F0F0F0A6
:2002CA00F0F08C828D83A3A3A39390E67CF08C828D83A3A3A3A3E49390E67CF07401F0E46C
:2002EA00F0F0F0F0F08C828D83A3A3A3A3A39390E67CF07411F0F0E4F0F0F0F0F0F0F0F0B9
:20030A00F0F0F0F0F07F0090E67CE4F00FBF600040F57582012290E613E4F090E615F090F9
:20032A00E6C2F090E6C37480F090E6C0E4F090E6F4F01201D3756F01758200120145756F9C
:20034A00017582011201457582011202677582021201727582000202487E647F00000000AD
:20036A0000EE24FFFCEF34FFFD8C068D07EC4D70EC227E647F00C007C006120363D006D05E
:20038A0007EE24FFFCEF34FFFD8C068D07EC4D70E5227EE87F03C007C006120363D006D0B7
:2003AA0007EE24FFFCEF34FFFD8C068D07EC4D70E52212006A75B2FF75800075B3FF759067
:2003CA000075B4FF75A00075B5FF75B00090E6A3E0FF20E2F890E6A5E0FF20E3F81200F19E
:2003EA00AF08AE09BE31047E0180027E00BF5002800302054C75B00012036375B00812034D
:20040A006375B00012036375B00412036375B00612036375B00012036375B00212036375DD
:20042A00B00412036375B00612036375B00012036375B00212036375B00412036375B006DB
:20044A0012036375B00412036375B00612036375B00012036375B00212036375B000120360
:20046A006375B00212036375B00012036375B00212036375B00412036375B006120363757B
:20048A00B00012036375B00212036375B00412036375B00612036375B00012036375B00283
:2004AA0012036375B00012036375B00212036375B00412036375B00612036375B0041203FC
:2004CA006375B00612036375B00012036375B00212039C75B00012039C75B00212039C7574
:2004EA00B00012039C75B00212039C75B00012039C75B00212039C75B00012039C75B0020E
:20050A0012039C75B00012039C75B00212039C75B00012039C75B00212039C75B00012038A
:20052A009C75B00212039C75B00012039C75B00212039C75B00012039C75B00212039C02DF
:20054A0003D7EF24D0FF8FF005F07401800225E0D5F0FBFD55B0FC7B008FF005F0AF06AA59
:1F056A00038006EF2FFFEA33FAD5F0F77E00ECB50707EEB502030203D7ED62B00203D76D
:20058D00308000030000EA1E8000030000AA180100020110CA100101020010CA0C02010271
:2005AD000010CA080302020010CA040605020010CA020C0B020010CA011817020010CA324D
:1405CD00302F020010CA147877020010CA0AF0EF020010CA3B
:06003500E478FFF6D8FD9F
:200013007900E94400601B7A009005E1780175A000E493F2A308B8000205A0D9F4DAF275AD
:02003300A0FF2C
:20003B007800E84400600A790175A000E4F309D8FC7800E84400600C7900900001E4F0A3C3
:04005B00D8FCD9FAFA
:0D000600758170120589E582600302000318
:040589007582002255
:00000001FF
