:03000000020006F5
:0B005F00750800E4F509F50A02000333
:0300030002006A8E
:20006A0090E61274A2F00000000090E6047482F00000000090E618E4F00000000090E64967
:20008A007482F00000000090E6497482F00000000075B4FF75B2FF7580FF1202AD758201D0
:2000AA001201F4120184E5A004540352A090E6A3E0FF20E211E5A0045403F5A090E6497413
:2000CA0082F00000000090E6817401F080DF7401B50B0280197402B50B0280127405B50B16
:2000EA0002800B740AB50B0280047582002275808075820122AF82BF01028003BF020B902B
:20010A00E61A74072FF0758201227582002290E6F574FFF00000000000000000000000003A
:20012A0090E6047480F000000000000000000000000000000000000000000000000090E6E1
:20014A00047486F000000000000000000000000090E604E4F02290E6F574FFF00000000069
:20016A000000000000000000E508700790E6487406F02290E6487402F0221201187EE87F71
:20018A0003EE24FFFCEF34FFFD8C068D07EC4D70F0E5BB30E7FB00000000000000000000B5
:2001AA00000090E6D07428F000000000000000000000000090E6D1E4F0E508700575BB06B0
:2001CA00800375BB04E4F509F50A22E582FFF508701790E61474E0F090E6E27401F090E670
:2001EA0025E4F090E6247402F022AF827E00EE75F007A4FCADF024F4F582ED3402F583E486
:20020A0093FBB5070280080EBE0CE375820022EC24F4FCED3402FD74062CF582E43DF58356
:20022A00E49390E601F075AF07759DE4759E008C828D83A3E49390E67CF08C828D83A3A324
:20024A00E49390E67CF07401F0E4F0F0F0F0F08C828D83A3A3A39390E67CF08C828D83A305
:20026A00A3A3A3E49390E67CF07401F0E4F0F0F0F0F08C828D83A3A3A3A3A39390E67CF077
:20028A007411F0F0E4F0F0F0F0F0F0F0F0F0F0F0F0F07F0090E67CE4F00FBF600040F575BE
:2002AA0082012290E613E4F090E615F090E6C2F090E6C37480F090E6C0E4F090E6F4F012FC
:2002CA000160750B017582001200D8750B017582011200D87582011201F47582021200FFE5
:0602EA007582000201D53F
:2002F400308000030000EA1E8000030000AA180100020110CA100101020010CA0C0201020D
:200314000010CA080302020010CA040605020010CA020C0B020010CA011817020010CA32E8
:14033400302F020010CA147877020010CA0AF0EF020010CAD6
:06003500E478FFF6D8FD9F
:200013007900E94400601B7A00900348780175A000E493F2A308B8000205A0D9F4DAF27548
:02003300A0FF2C
:20003B007800E84400600A790175A000E4F309D8FC7800E84400600C7900900001E4F0A3C3
:04005B00D8FCD9FAFA
:0D00060075810B1202F0E582600302000319
:0402F00075820022F1
:00000001FF
