:03000000020006F5
:0B005F00756C00E4F56DF56E02000307
:030003000203E80D
:20006A0090E6007410F090E60174C0F00000000090E60B7403F00000000090E61474E2F039
:20008A000000000090E61274A2F00000000090E6047480F00000000090E6047482F000000A
:2000AA00000090E6047484F00000000090E6047486F00000000090E6047488F0000000000A
:2000CA0090E604E4F00000000090E618E4F00000000090E6497482F00000000090E649748E
:2000EA0082F000000000227E007FF090E690E0FC7D0090E691E07A004DF573EA4CF5747AE7
:20010A00007B00C3EA9573EB95745021C3EA9464EB94005018EA2408F98E828F83E0FDA303
:20012A00AE82AF83A7050ABA00D90B80D60000000090E6497482F075826122AF8290F800D1
:20014A007441F090F801EFF090F802E573F090F803E4F00000000090E698E4F00000000075
:20016A0090E6997404F0227401B5730280197402B5730280127405B57302800B740AB5739E
:20018A000280047582002275B2FF7580FF75808075820122AF82BF01028003BF020B90E655
:2001AA001A74072FF0758201227582002290E6F574FFF000000000000000000000000090F0
:2001CA00E6047480F000000000000000000000000000000000000000000000000090E604CD
:2001EA007486F000000000000000000000000090E604E4F02290E6F574FFF00000000000CD
:20020A0000000000000000E56C700790E6487406F02290E6487402F0221201B77EE87F03CA
:20022A00EE24FFFCEF34FFFD8C068D07EC4D70F0E5BB30E7FB000000000000000000000017
:20024A000090E6D07428F000000000000000000000000090E6D1E4F0E56C700575BB06802B
:20026A000375BB04E4F56DF56E22E582FFF56C701790E61474E0F090E6E27401F090E625FE
:20028A00E4F090E6247402F022AF827E00EE75F007A4FCADF02408F582ED3405F583E49360
:2002AA00FBB5070280080EBE0CE375820022EC2408FCED3405FD74062CF582E43DF583E44E
:2002CA009390E601F075AF07759DE4759E008C828D83A3E49390E67CF08C828D83A3A3E484
:2002EA009390E67CF07401F0E4F0F0F0F0F08C828D83A3A3A39390E67CF08C828D83A3A3A6
:20030A00A3A3E49390E67CF07401F0E4F0F0F0F0F08C828D83A3A3A3A3A39390E67CF07405
:20032A0011F0F0E4F0F0F0F0F0F0F0F0F0F0F0F0F07F0090E67CE4F00FBF600040F575820F
:20034A00012290E613E4F090E615F090E6C2F090E6C37480F090E6C0E4F090E6F4F01201DC
:20036A00FF75730175820012017175730175820112017175820112029375820212019E75ED
:20038A0082000202747E647F0000000000EE24FFFCEF34FFFD8C068D07EC4D70EC227E640D
:2003AA007F00C007C00612038FD006D007EE24FFFCEF34FFFD8C068D07EC4D70E5227EE86E
:2003CA007F03C007C00612038FD006D007EE24FFFCEF34FFFD8C068D07EC4D70E52212009F
:2003EA006A75B2FF75800075B30075900075B4FF75A00075B5FF75B00090E6A3E0FF20E2BC
:20040A00F890E6A5E0FF20E3F81200F185086F8509707457B56F0280030204DA75B0007CF3
:20042A00007D00AA09E5093395E0FBC3EC9AED64808BF063F08095F040030204DAE4F57197
:20044A00F572FBFF8B027407C39AF5F005F07401800225E0D5F0FBF5708C0274022A240877
:20046A00F98702E570FE5AF57060027484F5B063B002C007C005C004C0031203C81203C8FD
:20048A0063B0021203C81203C8D003D004D005D007748055908BF005F08002C313D5F0FBCF
:2004AA00FE7A004271EA42720BBB00010FC3EB9408EF64809480408C8C82857173C005C09A
:2004CA0004120145D004D0050CBC00010D02042D7452B56F1275B00012038F75B0081203FD
:1A04EA008F75B00012038F7447B56F02800302040375B00812038F02040359
:20050800308000030000EA1E8000030000AA180100020110CA100101020010CA0C020102F6
:200528000010CA080302020010CA040605020010CA020C0B020010CA011817020010CA32D2
:14054800302F020010CA147877020010CA0AF0EF020010CAC0
:06003500E478FFF6D8FD9F
:200013007900E94400601B7A0090055C780175A000E493F2A308B8000205A0D9F4DAF27532
:02003300A0FF2C
:20003B007800E84400600A790175A000E4F309D8FC7800E84400600C7900900001E4F0A3C3
:04005B00D8FCD9FAFA
:0D000600758174120504E582600302000399
:0405040075820022DA
:00000001FF
