:03000000020006F5
:03005F0002000399
:0300030002006296
:2000620090E6007412F090E6017403F00000000090E60B7403F00000000090E61574E0F0FD
:200082000000000090E6047480F00000000090E6047482F00000000090E6047484F000003E
:2000A200000090E6047486F00000000090E6047488F00000000090E604E4F0000000009096
:2000C200E61B740CF090E602E4F00000000090E603E4F090E670F00000000090E609E4F0EB
:2000E2000000000090E6267402F00000000090E627E4F00000000090E6367480F0000000FB
:190102000090E637E4F075B5FFF5B075B2FFF5800000000075B0C980FE8E
:06003500E478FFF6D8FD9F
:200013007900E94400601B7A0090011F780175A000E493F2A308B8000205A0D9F4DAF27573
:02003300A0FF2C
:20003B007800E84400600A790175A000E4F309D8FC7800E84400600C7900900001E4F0A3C3
:04005B00D8FCD9FAFA
:0D00060075810712011BE5826003020003F3
:04011B0075820022C7
:00000001FF
