:03000000020006F5
:03005F0002000399
:030003000200F107
:2000620090E6007412F090E6017403F00000000090E60B7403F00000000090E61474E0F0FE
:200082000000000090E6047480F00000000090E6047482F00000000090E6047484F000003E
:2000A200000090E6047486F00000000090E6047488F00000000090E604E4F0000000009096
:2000C200E61A740DF00000000090E670E4F00000000090E609E4F00000000090E624740290
:1400E200F00000000090E625E4F0000000002212006280FE97
:06003500E478FFF6D8FD9F
:200013007900E94400601B7A009000FA780175A000E493F2A308B8000205A0D9F4DAF27599
:02003300A0FF2C
:20003B007800E84400600A790175A000E4F309D8FC7800E84400600C7900900001E4F0A3C3
:04005B00D8FCD9FAFA
:0D0006007581071200F6E582600302000319
:0400F60075820022ED
:00000001FF
