:03000000020006F5
:03005F0002000399
:030003000201C235
:2000620090E6007412F090E60174C0F00000000090E60B7403F00000000090E61474E2F03F
:200082000000000090E61274A2F00000000090E6047480F00000000090E6047482F0000012
:2000A200000090E6047484F00000000090E6047486F00000000090E6047488F00000000012
:2000C20090E604E4F00000000090E618E4F00000000090E6497482F00000000090E6497496
:2000E20082F000000000227E007FF090E690E0FC7D0090E691E07A004DF56CEA4CF56D7AFD
:20010200007B00C3EA956CEB956D5021C3EA9464EB94005018EA2408F98E828F83E0FDA319
:20012200AE82AF83A7050ABA00D90B80D60000000090E6497482F075826122AF8290F800D9
:200142007441F090F801EFF090F802E56CF090F803E4F00000000090E698E4F00000000084
:2001620090E6997404F0227E647F0000000000EE24FFFCEF34FFFD8C068D07EC4D70EC227A
:200182007E647F00C007C006120169D006D007EE24FFFCEF34FFFD8C068D07EC4D70E52244
:2001A2007EE87F03C007C006120169D006D007EE24FFFCEF34FFFD8C068D07EC4D70E5229D
:2001C20012006275B2FF75800075B3FF75900075B4FF75A00075B5FF75B000000000009047
:2001E200E6A3E0FF20E2F890E6A5E0FF20E3F81200E9AF08BF573B7D007E00AB09E50933D3
:2002020095E0FCC3ED9BEE64808CF063F08095F050208D0474022C2408F987B0C007C006EE
:20022200C005120169D005D006D0070DBD00CC0E80C9BF52AA90E6007412F090E601742357
:10024200F00000000090E61AE4F000000000808F49
:06003500E478FFF6D8FD9F
:200013007900E94400601B7A00900256780175A000E493F2A308B8000205A0D9F4DAF2753B
:02003300A0FF2C
:20003B007800E84400600A790175A000E4F309D8FC7800E84400600C7900900001E4F0A3C3
:04005B00D8FCD9FAFA
:0D00060075816D120252E582600302000355
:04025200758200228F
:00000001FF
