:03000000020006F5
:0B005F00756C00E4F56DF56E02000307
:030003000203E80D
:20006A0090E6007410F090E60174C0F00000000090E60B7403F00000000090E61474E2F039
:20008A000000000090E61274A2F00000000090E6047480F00000000090E6047482F000000A
:2000AA00000090E6047484F00000000090E6047486F00000000090E6047488F0000000000A
:2000CA0090E604E4F00000000090E618E4F00000000090E6497482F00000000090E649748E
:2000EA0082F000000000227E007FF090E690E0FC7D0090E691E07A004DF574EA4CF5757AE5
:20010A00007B00C3EA9574EB95755021C3EA9464EB94005018EA2408F98E828F83E0FDA301
:20012A00AE82AF83A7050ABA00D90B80D60000000090E6497482F075826122AF8290F800D1
:20014A007441F090F801EFF090F802E574F090F803E4F00000000090E698E4F00000000074
:20016A0090E6997404F0227401B5740280197402B5740280127405B57402800B740AB5749A
:20018A000280047582002275B2FF7580FF75808075820122AF82BF01028003BF020B90E655
:2001AA001A74072FF0758201227582002290E6F574FFF000000000000000000000000090F0
:2001CA00E6047480F000000000000000000000000000000000000000000000000090E604CD
:2001EA007486F000000000000000000000000090E604E4F02290E6F574FFF00000000000CD
:20020A0000000000000000E56C700790E6487406F02290E6487402F0221201B77EE87F03CA
:20022A00EE24FFFCEF34FFFD8C068D07EC4D70F0E5BB30E7FB000000000000000000000017
:20024A000090E6D07428F000000000000000000000000090E6D1E4F0E56C700575BB06802B
:20026A000375BB04E4F56DF56E22E582FFF56C701790E61474E0F090E6E27401F090E625FE
:20028A00E4F090E6247402F022AF827E00EE75F007A4FCADF024FBF582ED3404F583E4936E
:2002AA00FBB5070280080EBE0CE375820022EC24FBFCED3404FD74062CF582E43DF583E45C
:2002CA009390E601F075AF07759DE4759E008C828D83A3E49390E67CF08C828D83A3A3E484
:2002EA009390E67CF07401F0E4F0F0F0F0F08C828D83A3A3A39390E67CF08C828D83A3A3A6
:20030A00A3A3E49390E67CF07401F0E4F0F0F0F0F08C828D83A3A3A3A3A39390E67CF07405
:20032A0011F0F0E4F0F0F0F0F0F0F0F0F0F0F0F0F07F0090E67CE4F00FBF600040F575820F
:20034A00012290E613E4F090E615F090E6C2F090E6C37480F090E6C0E4F090E6F4F01201DC
:20036A00FF75740175820012017175740175820112017175820112029375820212019E75EB
:20038A0082000202747E647F0000000000EE24FFFCEF34FFFD8C068D07EC4D70EC227E640D
:2003AA007F00C007C00612038FD006D007EE24FFFCEF34FFFD8C068D07EC4D70E5227EE86E
:2003CA007F03C007C00612038FD006D007EE24FFFCEF34FFFD8C068D07EC4D70E52212009F
:2003EA006A75B2FF75800075B30075900075B4FF75A00075B5FF75B00090E6A3E0FF20E2BC
:20040A00F890E6A5E0FF20E3F81200F185086FAE097457B56F0280030204CDE4F5B0F570FA
:20042A00F571AA09E5093395E0FBC3E5709AE57164808BF063F08095F040030204CDE4F55A
:20044A0072F573FBFF748055908BF005F08002C313D5F0FBFA7D004272ED42738B05740785
:20046A00C39DF5F005F07401800225E0D5F0FBFEAC7074022C2408F987058E04EC5DFE60D6
:20048A00027484F5B063B002C007C0031203C81203C863B0021203C81203C8D003D0070BD6
:2004AA00BB00010FC3EB9408EF6480948040968570828572741201450570E4B57002057130
:2004CA0002042C7452B56F1275B00012038F75B00812038F75B00012038F7447B56F028020
:0D04EA000302040375B00812038F0204031F
:2004FB00308000030000EA1E8000030000AA180100020110CA100101020010CA0C02010204
:20051B000010CA080302020010CA040605020010CA020C0B020010CA011817020010CA32DF
:14053B00302F020010CA147877020010CA0AF0EF020010CACD
:06003500E478FFF6D8FD9F
:200013007900E94400601B7A0090054F780175A000E493F2A308B8000205A0D9F4DAF2753F
:02003300A0FF2C
:20003B007800E84400600A790175A000E4F309D8FC7800E84400600C7900900001E4F0A3C3
:04005B00D8FCD9FAFA
:0D0006007581751204F7E5826003020003A6
:0404F70075820022E8
:00000001FF
