:03000000020006F5
:03005F0002000399
:030003000201DD1A
:2000620090E6007412F090E60174C0F00000000090E60B7403F00000000090E61474E0F041
:200082000000000090E61274A2F00000000090E6047480F00000000090E6047482F0000012
:2000A200000090E6047484F00000000090E6047486F00000000090E6047488F00000000012
:2000C20090E604E4F00000000090E618E4F00000000090E619E4F00000000090E61AE4F0A7
:2000E2000000000090E61BE4F00000000090E6497482F00000000090E6497482F00000004F
:2001020000227E007FF090E690E0FC7D0090E691E07A004DF56CEA4CF56D7A007B00C3EA26
:20012200956CEB956D5021C3EA9464EB94005018EA2408F98E828F83E0FDA3AE82AF83A718
:20014200050ABA00D90B80D60000000090E6497482F075826122AF8290F8007441F090F895
:2001620001EFF090F802E56CF090F803E4F00000000090E698E4F00000000090E69974040A
:20018200F0227E647F0000000000EE24FFFCEF34FFFD8C068D07EC4D70EC227E647F00C0C0
:2001A20007C006120184D006D007EE24FFFCEF34FFFD8C068D07EC4D70E5227EE87F03C082
:2001C20007C006120184D006D007EE24FFFCEF34FFFD8C068D07EC4D70E52212006275B26F
:2001E200FF75800075B3FF75900075B4FF75A00075B5FF75B0000000000075B08990E60925
:20020200741FF00000000090E6A3E0FF20E2F890E6A5E0FF20E3F8120104AF08BF573B7DD6
:20022200007E00AB09E5093395E0FCC3ED9BEE64808CF063F08095F050208D0474022C2440
:2002420008F987B0C007C006C005120184D005D006D0070DBD00CC0E80C9BF52AA90E600DB
:200262007412F090E6017403F00000000090E61A740CF00000000075B5FF90E609741FF0FD
:1A0282000000000090E6267402F00000000090E627E4F000000000020209E2
:06003500E478FFF6D8FD9F
:200013007900E94400601B7A009002A0780175A000E493F2A308B8000205A0D9F4DAF275F1
:02003300A0FF2C
:20003B007800E84400600A790175A000E4F309D8FC7800E84400600C7900900001E4F0A3C3
:04005B00D8FCD9FAFA
:0D00060075816D12029CE58260030200030B
:04029C007582002245
:00000001FF
