:03000000020006F5
:0B005F00750800E4F509F50A02000333
:0300030002039560
:20006A0090E6007410F090E60174C0F00000000090E60B7403F00000000090E61474E2F039
:20008A000000000090E61274A2F00000000090E6047480F00000000090E6047482F000000A
:2000AA00000090E6047484F00000000090E6047486F00000000090E6047488F0000000000A
:2000CA0090E604E4F00000000090E618E4F00000000090E6497482F00000000090E649748E
:2000EA0082F000000000227E007FF07C007DF890E690E0FA7B0090E691E0F87900E84BF5A9
:20010A000BE94AF50C78007900C3E8950BE9950C503B8E828F83E0F50DC394614013E50D44
:20012A002485400DAB0D74E02BFB8C828D83F0800B8E828F83E0FB8C828D83F008B8000128
:20014A00090EBE00010F0CBC00BF0D80BC0000000090E6497482F00000000090E698E50C3C
:20016A00F000000000AE0B90E699EEF0227401B50B0280197402B50B0280127405B50B02E8
:20018A00800B740AB50B0280047582002275B2FF7580FF75808075820122AF82BF010280D1
:2001AA0003BF020B90E61A74072FF0758201227582002290E6F574FFF0000000000000003B
:2001CA00000000000090E6047480F0000000000000000000000000000000000000000000B7
:2001EA0000000090E6047486F000000000000000000000000090E604E4F02290E6F574FF43
:20020A00F0000000000000000000000000E508700790E6487406F02290E6487402F02212DE
:20022A0001BD7EE87F03EE24FFFCEF34FFFD8C068D07EC4D70F0E5BB30E7FB000000000071
:20024A000000000000000090E6D07428F000000000000000000000000090E6D1E4F0E508BA
:20026A00700575BB06800375BB04E4F509F50A22E582FFF508701790E61474E0F090E6E2FF
:20028A007401F090E625E4F090E6247402F022AF827E00EE75F007A4FCADF024B1F582EDDF
:2002AA003403F583E493FBB5070280080EBE0CE375820022EC24B1FCED3403FD74062CF580
:2002CA0082E43DF583E49390E601F075AF07759DE4759E008C828D83A3E49390E67CF08C41
:2002EA00828D83A3A3E49390E67CF07401F0E4F0F0F0F0F08C828D83A3A3A39390E67CF04E
:20030A008C828D83A3A3A3A3E49390E67CF07401F0E4F0F0F0F0F08C828D83A3A3A3A3A38A
:20032A009390E67CF07411F0F0E4F0F0F0F0F0F0F0F0F0F0F0F0F07F0090E67CE4F00FBFB2
:20034A00600040F57582012290E613E4F090E615F090E6C2F090E6C37480F090E6C0E4F0BD
:20036A0090E6F4F0120205750B01758200120177750B0175820112017775820112029975E1
:20038A0082021201A475820002027A12006A90E6A3E0FF20E2F890E6A5E0FF20E3F812002E
:0303AA00F180EBF4
:2003B100308000030000EA1E8000030000AA180100020110CA100101020010CA0C0201024F
:2003D1000010CA080302020010CA040605020010CA020C0B020010CA011817020010CA322B
:1403F100302F020010CA147877020010CA0AF0EF020010CA19
:06003500E478FFF6D8FD9F
:200013007900E94400601B7A00900405780175A000E493F2A308B8000205A0D9F4DAF2758A
:02003300A0FF2C
:20003B007800E84400600A790175A000E4F309D8FC7800E84400600C7900900001E4F0A3C3
:04005B00D8FCD9FAFA
:0D00060075810D1203ADE582600302000359
:0403AD007582002233
:00000001FF
