:03000000020006F5
:03005F0002000399
:03000300020120D7
:2000620090E6007412F090E6017403F00000000090E60B7403F00000000090E61474E0F0FE
:200082000000000090E6047480F00000000090E6047482F00000000090E6047484F000003E
:2000A200000090E6047486F00000000090E6047488F00000000090E604E4F0000000009096
:2000C200E61A7408F00000000090E670E4F00000000090E609741FF00000000090E62474E8
:2000E20002F00000000090E625E4F00000000090E618E4F00000000090E619E4F0000000D8
:200102000090E61BE4F00000000075B5FF75B00075B2FF7580000000000075B00F221200A7
:030122006280FEFA
:06003500E478FFF6D8FD9F
:200013007900E94400601B7A00900129780175A000E493F2A308B8000205A0D9F4DAF27569
:02003300A0FF2C
:20003B007800E84400600A790175A000E4F309D8FC7800E84400600C7900900001E4F0A3C3
:04005B00D8FCD9FAFA
:0D000600758107120125E5826003020003E9
:0401250075820022BD
:00000001FF
