:03000000020006F5
:03005F0002000399
:030003000200E90F
:2000620090E6007410F090E60174C0F00000000090E60B7403F00000000090E61474E2F041
:200082000000000090E61274A2F00000000090E6047480F00000000090E6047482F0000012
:2000A200000090E6047484F00000000090E6047486F00000000090E6047488F00000000012
:2000C20090E604E4F00000000090E618E4F00000000090E6497482F00000000090E6497496
:2000E20082F0000000002212006275B2FF75800075B3FF75900075B4FF75A00075B5FF75D4
:0A010200B0007590FF75900080F8C2
:06003500E478FFF6D8FD9F
:200013007900E94400601B7A00900110780175A000E493F2A308B8000205A0D9F4DAF27582
:02003300A0FF2C
:20003B007800E84400600A790175A000E4F309D8FC7800E84400600C7900900001E4F0A3C3
:04005B00D8FCD9FAFA
:0D00060075816B12010CE58260030200039E
:04010C0075820022D6
:00000001FF
